:1000000080160020D11400009D530000BD14000094
:10001000BD140000BD140000BD140000000000006D
:100020000000000000000000000000003D1600007D
:10003000BD14000000000000D9150000BD14000030
:10004000C5170000C5170000C5170000C517000040
:10005000C5170000C5170000C5170000C517000030
:10006000C5170000C5170000C5170000C517000020
:10007000C5170000C5170000C5170000C517000010
:10008000C5170000C5170000C5170000C517000000
:10009000C5170000C5170000C5170000C5170000F0
:1000A000C5170000C5170000C5170000C5170000E0
:1000B000C5170000C5170000C5170000C5170000D0
:1000C000C5170000C5170000C5170000C5170000C0
:1000D000C5170000C5170000C5170000C5170000B0
:1000E000C5170000C5170000C5170000C5170000A0
:1000F000C5170000C5170000C5170000C517000090
:100100004FF0FF0C1CEAD0521EBF1CEAD15392EAFA
:100110000C0F93EA0C0F6FD01A4480EA010C4002D6
:1001200018BF5FEA41211ED04FF0006343EA501030
:1001300043EA5111A0FB01310CF00040B1F5000F72
:100140003EBF490041EAD3715B0040EA010062F121
:100150007F02FD2A1DD8B3F1004F40EBC25008BF0B
:1001600020F00100704790F0000F0CF0004C08BF29
:1001700049024CEA502040EA51207F3AC2BFD2F1F6
:10018000FF0340EAC250704740F400004FF0000304
:10019000013A5DDC12F1190FDCBF00F0004070473E
:1001A000C2F10002410021FA02F1C2F1200200FA7C
:1001B00002FC5FEA310040F1000053EA4C0308BF43
:1001C00020EADC70704792F0000F00F0004C02BF94
:1001D000400010F4000F013AF9D040EA0C0093F00F
:1001E000000F01F0004C02BF490011F4000F013B69
:1001F000F9D041EA0C018FE70CEAD15392EA0C0FD7
:1002000018BF93EA0C0F0AD030F0004C18BF31F041
:10021000004CD8D180EA010000F00040704790F017
:10022000000F17BF90F0004F084691F0000F91F0BB
:10023000004F14D092EA0C0F01D142020FD193EA81
:100240000C0F03D14B0218BF084608D180EA010009
:1002500000F0004040F0FE4040F40000704740F0E5
:10026000FE4040F44000704781F0004102E000BFD2
:1002700083F0004330B54FEA41044FEA430594EA66
:10028000050F08BF90EA020F1FBF54EA000C55EAA1
:10029000020C7FEA645C7FEA655C00F0E2804FEA72
:1002A0005454D4EB5555B8BF6D420CDD2C4480EA54
:1002B000020281EA030382EA000083EA010180EA84
:1002C000020281EA0303362D88BF30BD11F0004FD2
:1002D0004FEA01314FF4801C4CEA113102D0404208
:1002E00061EB410113F0004F4FEA03334CEA133343
:1002F00002D0524263EB430394EA050F00F0A7805B
:10030000A4F10104D5F1200E0DDB02FA0EFC22FA55
:1003100005F2801841F1000103FA0EF2801843FA49
:1003200005F359410EE0A5F120050EF1200E012A3A
:1003300003FA0EFC28BF4CF0020C43FA05F3C01878
:1003400051EBE37101F0004507D54FF0000EDCF1F1
:10035000000C7EEB00006EEB0101B1F5801F1BD39A
:10036000B1F5001F0CD349085FEA30004FEA3C0C9E
:1003700004F101044FEA445212F5800F80F09A8094
:10038000BCF1004F08BF5FEA500C50F1000041EB98
:10039000045141EA050130BD5FEA4C0C404141EB9C
:1003A0000101013C28BFB1F5801FE9D291F0000F97
:1003B00004BF01460020B1FA81F308BF2033A3F146
:1003C0000B03B3F120020CDA0C3208DD02F1140C3D
:1003D000C2F10C0201FA0CF021FA02F10CE002F178
:1003E0001402D8BFC2F1200C01FA02F120FA0CFC71
:1003F000DCBF41EA0C019040E41AA2BF01EB0451BA
:10040000294330BD6FEA04041F3C1CDA0C340EDCB7
:1004100004F11404C4F1200220FA04F001FA02F3FA
:1004200040EA030021FA04F345EA030130BDC4F1B8
:100430000C04C4F1200220FA02F001FA04F340EAAD
:100440000300294630BD21FA04F0294630BD94F05E
:10045000000F83F4801306BF81F480110134013D45
:100460004EE77FEA645C18BF7FEA655C29D094EAB6
:10047000050F08BF90EA020F05D054EA000C04BF34
:100480001946104630BD91EA030F1EBF002100201F
:1004900030BD5FEA545C05D14000494128BF41F0BE
:1004A000004130BD14F580043CBF01F5801130BD22
:1004B00001F0004545F0FE4141F470014FF00000AD
:1004C00030BD7FEA645C1ABF194610467FEA655C5E
:1004D0001CBF0B46024650EA013406BF52EA033500
:1004E00091EA030F41F4002130BD00BF90F0000FEE
:1004F00004BF0021704730B54FF4806404F132042A
:100500004FF000054FF0000150E700BF90F0000FE2
:1005100004BF0021704730B54FF4806404F1320409
:1005200010F0004548BF40424FF000013EE700BFD9
:1005300042004FEAE2014FEA31014FEA02701FBF69
:1005400012F07F4393F07F4F81F06051704732F09B
:100550007F4208BF704793F07F4F04BF41F40021F2
:10056000704730B54FF4607401F0004521F0004150
:100570001CE700BF50EA010208BF704730B54FF0DA
:1005800000050AE050EA010208BF704730B511F0DB
:10059000004502D5404261EB41014FF4806404F113
:1005A00032045FEA915C3FF4D8AE4FF003025FEA99
:1005B000DC0C18BF03325FEADC0C18BF033202EB1D
:1005C000DC02C2F1200300FA03FC20FA02F001FA77
:1005D00003FE40EA0E0021FA02F11444BDE600BF1A
:1005E00070B54FF0FF0C4CF4E06C1CEA11541DBFC9
:1005F0001CEA135594EA0C0F95EA0C0F00F0DEF894
:100600002C4481EA030621EA4C5123EA4C5350EA78
:10061000013518BF52EA033541F4801143F48013C9
:1006200038D0A0FB02CE4FF00005E1FB02E506F05A
:100630000042E0FB03E54FF00006E1FB03569CF0AF
:10064000000F18BF4EF0010EA4F1FF04B6F5007FB5
:1006500064F5407404D25FEA4E0E6D4146EB060627
:1006600042EAC62141EA55514FEAC52040EA5E50B0
:100670004FEACE2EB4F1FD0C88BFBCF5E06F1ED85A
:10068000BEF1004F08BF5FEA500E50F1000041EB91
:10069000045170BD06F0004646EA010140EA02003E
:1006A00081EA0301B4EB5C04C2BFD4EB0C0541EA60
:1006B000045170BD41F480114FF0000E013C00F375
:1006C000AB8014F1360FDEBF002001F0004170BD99
:1006D000C4F10004203C35DA0C341BDC04F11404B2
:1006E000C4F1200500FA05F320FA04F001FA05F23E
:1006F00040EA020001F0004221F0004110EBD3700B
:1007000021FA04F642EB06015EEA430E08BF20EA36
:10071000D37070BDC4F10C04C4F1200500FA04F3D9
:1007200020FA05F001FA04F240EA020001F000416B
:1007300010EBD37041F100015EEA430E08BF20EADE
:10074000D37070BDC4F1200500FA05F24EEA020E26
:1007500020FA04F301FA05F243EA020321FA04F055
:1007600001F0004121FA04F220EA020000EBD3700C
:100770005EEA430E08BF20EAD37070BD94F0000F0C
:100780000FD101F00046400041EB010111F4801F40
:1007900008BF013CF7D041EA060195F0000F18BFF1
:1007A000704703F00046520043EB030313F4801F2D
:1007B00008BF013DF7D043EA0603704794EA0C0FE7
:1007C0000CEA135518BF95EA0C0F0CD050EA4106FD
:1007D00018BF52EA4306D1D181EA030101F000417A
:1007E0004FF0000070BD50EA410606BF10461946A2
:1007F00052EA430619D094EA0C0F02D150EA0136AE
:1008000013D195EA0C0F05D152EA03361CBF1046EE
:1008100019460AD181EA030101F0004141F0FE418D
:1008200041F470014FF0000070BD41F0FE4141F411
:10083000780170BD70B54FF0FF0C4CF4E06C1CEA11
:1008400011541DBF1CEA135594EA0C0F95EA0C0FC6
:1008500000F0A7F8A4EB050481EA030E52EA033581
:100860004FEA013100F088804FEA03334FF08055A2
:1008700045EA131343EA12634FEA022245EA1115CF
:1008800045EA10654FEA00260EF000419D4208BF80
:10089000964244F1FD0404F5407402D25B084FEA2D
:1008A0003202B61A65EB03055B084FEA32024FF4D9
:1008B00080104FF4002CB6EB020E75EB030E22BF36
:1008C000B61A754640EA0C005B084FEA3202B6EBF6
:1008D000020E75EB030E22BFB61A754640EA5C00A5
:1008E0005B084FEA3202B6EB020E75EB030E22BF35
:1008F000B61A754640EA9C005B084FEA3202B6EB36
:10090000020E75EB030E22BFB61A754640EADC00F4
:1009100055EA060E18D04FEA051545EA16754FEA56
:1009200006164FEAC30343EA52734FEAC2025FEA74
:100930001C1CC0D111F4801F0BD141EA00014FF003
:1009400000004FF0004CB6E711F4801F04BF0143D4
:100950000020B4F1FD0C88BFBCF5E06F3FF6AFAEF0
:10096000B5EB030C04BFB6EB020C5FEA500C50F180
:10097000000041EB045170BD0EF0004E4EEA113103
:1009800014EB5C04C2BFD4EB0C0541EA045170BD0A
:1009900041F480114FF0000E013C90E645EA060E4E
:1009A0008DE60CEA135594EA0C0F08BF95EA0C0F7C
:1009B0003FF43BAF94EA0C0F0AD150EA01347FF4C4
:1009C00034AF95EA0C0F7FF425AF104619462CE79B
:1009D00095EA0C0F06D152EA03353FF4FDAE1046FE
:1009E000194622E750EA410618BF52EA43067FF44F
:1009F000C5AE50EA41047FF40DAF52EA43057FF4DF
:100A0000EBAE12E74FEA4102B2F1E04324BFB3F587
:100A1000001CDCF1FE5C0DD901F0004C4FEAC00275
:100A20004CEA5070B2F1004F40EB830008BF20F059
:100A30000100704711F0804F21D113F13872BCBF13
:100A400001F00040704741F480114FEA5252C2F168
:100A50001802C2F1200C10FA0CF320FA02F018BFB1
:100A600040F001004FEAC1234FEAD32303FA0CFC04
:100A700040EA0C0023FA02F34FEA4303CCE77FEA93
:100A8000625307D150EA01331EBF4FF0FE4040F4DD
:100A90004000704701F0004040F0FE4040F400008C
:100AA000704700BF80F0004002E000BF81F00041CD
:100AB00042001FBF5FEA410392EA030F7FEA226C04
:100AC0007FEA236C6AD04FEA1262D2EB1363C1BF94
:100AD000D218414048404140B8BF5B42192B88BF03
:100AE000704710F0004F40F4000020F07F4018BF26
:100AF000404211F0004F41F4000121F07F4118BF46
:100B0000494292EA030F3FD0A2F1010241FA03FCED
:100B100010EB0C00C3F1200301FA03F100F00043D5
:100B200002D5494260EB4000B0F5000F13D3B0F19D
:100B3000807F06D340084FEA310102F10102FE2A0C
:100B400051D2B1F1004F40EBC25008BF20F001007C
:100B500040EA03007047490040EB0000013A28BF1B
:100B6000B0F5000FEDD2B0FA80FCACF1080CB2EB9E
:100B70000C0200FA0CF0AABF00EBC250524218431C
:100B8000BCBFD0401843704792F0000F81F40001C1
:100B900006BF80F400000132013BB5E74FEA410394
:100BA0007FEA226C18BF7FEA236C21D092EA030F00
:100BB00004D092F0000F08BF0846704790EA010F7A
:100BC0001CBF0020704712F07F4F04D1400028BFA7
:100BD00040F00040704712F100723CBF00F5000089
:100BE000704700F0004343F0FE4040F400007047BF
:100BF0007FEA226216BF08467FEA2363014642026B
:100C000006BF5FEA412390EA010F40F4800070477D
:100C10004FF0000304E000BF10F0004348BF404223
:100C20005FEA000C08BF704743F0964301464FF05F
:100C300000001CE050EA010208BF70474FF00003BB
:100C40000AE000BF50EA010208BF704711F00043FC
:100C500002D5404261EB41015FEA010C02BF8446CC
:100C60000146002043F0B64308BFA3F18053A3F52B
:100C70000003BCFA8CF2083AA3EBC25310DB01FA72
:100C800002FC634400FA02FCC2F12002BCF1004FF6
:100C900020FA02F243EB020008BF20F00100704787
:100CA00002F1200201FA02FCC2F1200250EA4C00DB
:100CB00021FA02F243EB020008BF20EADC70704721
:100CC0004FEA4002B2F1FE4F0FD34FF09E03B3EB59
:100CD00012620DD94FEA002343F0004310F0004F99
:100CE00023FA02F018BF404270474FF000007047EF
:100CF00012F1610F01D1420205D110F0004008BF8E
:100D00006FF0004070474FF0000070471FB502239E
:100D1000019002938DF80C3007489DF80C308268E2
:100D200043F002038DF80C3094681E23012201A9C0
:100D3000A04704B010BD00BFE45D00002DE9F047FE
:100D40008AB046F2600308A8ADF82030FFF7DEFF56
:100D5000602308A8ADF82030FFF7D8FF4FF4B17337
:100D600008A8ADF82030FFF7D1FF40F6CD400021B4
:100D700004F011FFDFF85C91DFF85C816724012348
:100D8000009354488DF81D400DF11E030DF11D0216
:100D90001E2104F016F99DF81E301B07EFD5022422
:100DA00068238DF81D308DF81F30009409AB0DF1CC
:100DB0001F0248461E2104F004F96A238DF81D30F5
:100DC0008DF81F30009409AB0DF11F0248461E211B
:100DD000BDF9245004F0F5F86C230DF11F028DF8D5
:100DE0001D308DF81F30009409AB1E214846BDF917
:100DF000246004F0E6F82846FFF70EFF4146FFF7AF
:100E00007FF905463046FFF707FF4146FFF778F9BF
:100E10000446BDF92400FFF7FFFE4146FFF770F9D5
:100E200082462846FFF784FBCDE902012046FFF702
:100E30007FFB064650460F46FFF77AFB3246CDE968
:100E400004013B4630463946FFF7CAFBDDE9022381
:100E500006460F4610461946FFF7C2FB02460B46F0
:100E600030463946FFF706FADDE9042306460F4609
:100E700010461946FFF7B4FB02460B46304639468A
:100E8000FFF7F8F903F0B8FFFFF7BCFD0646284668
:100E9000FFF716FF0146114804F091F92046FFF7CD
:100EA0000FFF01460E4804F08AF95046FFF708FF8D
:100EB00001460C4804F083F93046FFF701FF014674
:100EC000094804F07CF9002140F6CD4004F063FEAF
:100ED00054E700BFE45D00009A99193EFC600000F1
:100EE000036100000A61000011610000014B1B68F2
:100EF000184700BFC0040020014B1860704700BFB6
:100F0000C004002030B585B004460D4610220021F3
:100F1000684604F0A5FE02238DF802302A46044BF1
:100F200001932146684603F00BFD05B030BD00BFBC
:100F3000ED0E000080B505460E461746984603F0B4
:100F4000B5FA034604F0F8FEDFF81890044649F8B5
:100F50000030424630463946A84754F8090000F0B0
:100F600025FB00BF080000002DE9F047058B044673
:100F70002807904611D4022905F0070540F0CC80DF
:100F8000204604F029F978B10138218B042811D8C2
:100F9000DFE800F0C2106D85950001290CBF45F017
:100FA000100545F02005258388F31188BFF36F8F66
:100FB000BDE8F08701F0070AAA4500F0A5800027E8
:100FC000B9463E46A368002B00F0BC8041F0080102
:100FD000218388F31188BFF36F8FA168002900F087
:100FE000BA800D68002900F0B680D1F8048033463D
:100FF00052462046C047002D76D02B6829461D4614
:10100000F0E701F007035A1F012A1BD8002221F044
:101010000701062B276889B2C4E9002209D13B46A3
:1010200003E0628B013262831B68002BF9D141F02F
:1010300002012183204604F0CFF800287AD041F045
:10104000200176E0042B0AD121F0070189B2218327
:10105000204604F0C1F810B141F020012183218B1A
:1010600001F0070AAA454FD00027B946AAE723692D
:1010700021F0070141F00601062DD3F800902183ED
:101080002DD1B9F1000F3FD041F00801218388F341
:101090001188BFF36F8F3A492046C84729E021F0F5
:1010A0000701236941F0040189B2042DD3F80490AB
:1010B0002183E6D000273E464FF0040A82E721F064
:1010C0000701236941F0050189B2052DD3F8089085
:1010D0002183D6D000273E464FF0050A72E700274D
:1010E0003E464FF0060A6DE72B4687E7B9F1000F41
:1010F000D1D1EFF31188202383F31288BFF36F8FD0
:10110000238B23F008032383258BEA062ED525F0B5
:101110001003238305F007056669218B002EBFF6B7
:1011200070AF00232768C4E9003321F0070141F0C4
:1011300001012183218B01F0070AAA454FF0000924
:101140007FF440AF002F9CD041F00801218388F349
:101150001188BFF36F8F002FC8D03D6839463346E2
:101160005246204604F064F82F46F4E7AB067FF5BC
:101170001BAF25F02003238305F0070500E700BF20
:101180005D520000014B036000207047E85F0000E3
:1011900008B5044804F013F8BDE80840024804F01C
:1011A0000EB800BF1A6100004F61000030BFFFF7AA
:1011B000FDBF00BF2DE9F0410B4EDFF8308006EB9C
:1011C0000807CC1B054632460949204604F03AFD83
:1011D000A01942460021083C04F042FD2C6707F1AB
:1011E0000800BDE8F08100BF00000000040000001E
:1011F000DC5F0000074A936893F90E10002907DBB3
:10120000526993421FBF044A536843F080535360AE
:10121000704700BF4C08002000ED00E070B5264B81
:1012200015469A6A12F0100F9A6A14BF11241024FE
:1012300012F0080F9A6A18BF1224920706460AD5C0
:10124000586B9A6A140634D519B19A6A22F0800252
:101250009A62132401E06FF01500174B9A6A12F09E
:10126000010F9A6A18BF142412F0200F9A6A18BF4F
:101270001524D20602D49B6A9B070AD50E4B5B68E5
:10128000190506D5314600F057FA10B180F30988E8
:101290000224094B9A6A920642BF5A6A22F400520B
:1012A0005A629A6A42F0FF029A6200232B7020462B
:1012B00070BD6FF01500CCE700ED00E0134B9A6AAB
:1012C00012F0007F9A6A14BF1E201D2012F0807F4A
:1012D0009A6A18BF1F2012F4002F9A6A18BF2120A3
:1012E00012F4802F9A6A18BF222012F4003F9A6AE3
:1012F00018BF232012F4803F9A6A6FEA02426FEA15
:1013000012429A6218BF2420704700BF00ED00E02F
:1013100010B5194B0246986A9C6A10F4805F14BF9E
:101320001720162014F4006F9C6A18BF1820A4051B
:1013300009D5986B986A000404D51AB19A6A22F408
:1013400000429A6219200C4B9A6A12F4806F9A6AD2
:1013500018BF1A20D2050CD49B6A13F4005F18BF83
:101360001C20054A936A43F47F43936200230B7069
:1013700010BD1B20F5E700BF00ED00E0F0B5484BC5
:101380005B688BB00446C3F30803002585F311881E
:10139000BFF36F8F02F07F40B0F17F4F11D102F0A9
:1013A0000C0008280DD010074CBF0C460125002268
:1013B000033B8DF80720032B05D8DFE803F02463F7
:1013C00067602C46F3E700239DF80720CAB902AEF8
:1013D00004F1200720686168324603C20834BC4229
:1013E0001646F7D1099A002D54D0C2F3080121B94D
:1013F0006FEA52226FEA4222099202A9184603F0CC
:10140000C3FF0BB0F0BD264BDA6A9107DBD4DA6A72
:10141000002AD8DBDA6A5200D5D55A69A16942F4AC
:1014200080725A61BFF34F8FBFF36F8F5A6931F8E3
:10143000021C22F480725A61BFF34F8FBFF36F8F8B
:101440004DF6027291420AD09A6AD2B24AB10DF1B7
:10145000070201212046FFF7E1FE0346B4E72368B7
:10146000B2E79A6A12F47F4F05D00DF1070101200F
:10147000FFF74EFFF1E79B6AB3F5803FA3D3FFF779
:101480001DFFEAE70DF107020021E3E70DF1070177
:101490000020EDE722F4FF7222F00102ACE700BF6A
:1014A00000ED00E0044B5A6942F010025A615A699B
:1014B00022F008025A61704700ED00E0EFF3088067
:1014C000EFF3098101B57246FFF758FF01BD00BF78
:1014D000002080F31488BFF36F8F0F4880F30888D3
:1014E00001F0FCFA00200D490860BFF34F8F00F0B7
:1014F0002BF8202080F3118809484FF4046140182C
:1015000080F30988EFF314800221084380F31488E4
:10151000BFF36F8F00F0D8F88016002094ED00E044
:10152000C00800200749D1F890200023C2F3072209
:101530001846934200DB7047C1F89830C1F8A0000C
:101540000133F6E700ED00E008B572B6002383F33F
:101550001388FFF7E7FF144B4FF0FF32C3F88020EA
:10156000C3F88420C3F88820C3F88C20C3F89020E7
:10157000C3F89420C3F89820C3F89C20C3F88021B6
:10158000C3F88421C3F88821C3F88C21C3F89021C3
:10159000C3F89421C3F89821C3F89C2162B6BFF325
:1015A0004F8FBFF36F8F08BD00E100E0084B9B68D1
:1015B00083420BD1EFF3058343B1064B5A6842F0E7
:1015C00080525A605A6A22F400425A6202F074BF92
:1015D0004C08002000ED00E015498A684FF030000B
:1015E0001044EFF3098C80E8F01F202080F312886C
:1015F000BFF36F8F0F4F4FF000664A698A603E60FD
:101600004FF07004141920680B4C2060506F0023B9
:10161000536780F3118804B5104600F0F1F8BDE877
:10162000044002F1300090E8F01F8CF30988704705
:101630004C08002004ED00E0500700201EF0040FCD
:101640000CBFEFF30880EFF30980816911F8021CE9
:101650000229FFD001B5724603F09CFE01BD00BF18
:1016600040B2002807DB044A4109012300F01F00B3
:10167000834042F82130704700E100E0054B420909
:1016800000F01F0053F82220012303FA00F010405D
:10169000704700BF00E100E040B20028A8BF00F1A1
:1016A000604001F10101B8BF064B4FEA4111ACBFE8
:1016B00000F5614000F00F00C9B2B4BF195480F8C2
:1016C0000013704714ED00E00B4A08B50B4B22F0F5
:1016D0007F029A60BFF34F8FBFF36F8FD3F88820DC
:1016E00022F47002C3F8882002F06AFB02F0F2FFD5
:1016F00000F05CF802F0A8FB0000000000ED00E044
:1017000042F8203C009B42F81C3C0A49019B42F8ED
:10171000183C029B42F8143C21F001014FF0807309
:1017200042F8043C42F8081C0023203A0265436753
:10173000704700BF350F0000094A0346906870B13A
:1017400013F1160F006E05D0A0F140029A4205D8A1
:10175000834203D2814228BF002070470020704797
:101760004C08002008B51546094A0A4B9060026FE4
:101770001A600E4600F044F82C4686F309880020D3
:10178000054B98472046002100220023034C2047A8
:101790004C08002050070020B3530000350F000014
:1017A000014B10221A61704700ED00E0044800234D
:1017B0002021C2180133302B82F80013F9D1704771
:1017C00000E100E008B5EFF30583064A103B02EBA9
:1017D000C30152F8330049688847BDE80840FFF765
:1017E00009BD00BFF85D0000024B034A0348012118
:1017F00000F076B80000022000000020E85F000042
:10180000026E054B403A1A60044A4021C3E90112B6
:101810001846012100F06EB85407002000000B1597
:10182000084AC2F898000B6823F01F03034343F0F3
:101830001003C2F89C308B6843F00103C2F8A0305B
:10184000704700BF00ED00E02DE9F043DFF8608055
:1018500085B00E461F4604464FF00009B14523DA15
:101860006068D8B13FB1411E08421BD11F2819D969
:101870002368194216D12368019303F0BDFDA368C4
:1018800003430393D8F89050C5F30725D0B2013D28
:10189000A84207D801A9FFF7C3FF421C09F10109BB
:1018A0000C34DBE76FF01502104605B0BDE8F0839D
:1018B00000ED00E0044B0522C3F89420BFF34F8FE6
:1018C000BFF36F8F704700BF00ED00E0BFF35F8F85
:1018D000024B0022C3F89420704700BF00ED00E0E7
:1018E00010B5034C01232278FFF7AEFF207010BD26
:1018F0007C08002008B50B4A00231278FFF7A4FFEC
:1019000010F1160F07D0084A0021D2F89030C3F327
:101910000723984200DB08BDC2F89800C2F8A01067
:101920000130F2E77C08002000ED00E02DE9F043F3
:10193000534B544CD3F890302568C3F307239D4292
:1019400085B000F29A80FFF7C1FF00200C26854287
:101950001AD14D4C4D4F25706846FFF713FCDFF848
:101960002081DFF82C9106460025AE4213D1237862
:1019700043490020D1F89020C2F30722934276DB3E
:10198000FFF798FF002042E0616806FB0011FFF7B7
:1019900047FF0130DBE7009800EB05114FEA051C1B
:1019A000CB683B40B3F5000F48D00AD8B3F5001F11
:1019B00030D0B3F5800F36D0B3F5801F10D001358D
:1019C000D3E7B3F1807F42D0B3F1007FF7D150F875
:1019D0000C3088684A6803F00FFD40F4802009E06D
:1019E00050F80C3088684A6803F006FD40F08850D3
:1019F00040F43020CDE901230390D8F890302078CE
:101A0000C3F30723013B98422AD96FF0150005B0B4
:101A1000BDE8F08350F80C3088684A6803F0ECFCAD
:101A200040EA0900E6E750F80C3088684A6803F09D
:101A3000E3FC40F0E06040F40030DBE750F80C30AD
:101A400088684A6803F0D8FC40F08270D2E750F80A
:101A50000C3088684A6803F0CFFC40F08870C9E712
:101A600001A9FFF7DDFE237801332370A7E7C1F852
:101A70009830C1F8A00001337CE74FF0FF30C6E793
:101A800000ED00E0F45F00007C0800200000F0FFA3
:101A90000000081108B5024B1B689847002008BDDC
:101AA00060070020034B044A1860937843F0020358
:101AB0009370704760070020C404002008B50649F1
:101AC000064821F00701C1F1005202F5003203F08F
:101AD0001CFB002008BD00BFC716002064070020C3
:101AE000044A0123C2F840354FF080420020C2F87A
:101AF0007835704700E0014020B1034B800143F08E
:101B000001031847704700BFE05F0000084B70B545
:101B1000C31A0D4607499B10044659430648402204
:101B200003F088FC2B4601462046BDE8704018476C
:101B300084070020B76DDBB6945D000073B50C4CD4
:101B40000C4A4023041B00930D460B460A49A4107F
:101B500061430646094803F099FC011E05DA304648
:101B60002B4602B0BDE87040184702B070BD00BF00
:101B700084070020F7540000B76DDBB6945D0000C9
:101B800010B5EFF31184202383F31288BFF36F8F16
:101B9000074A136823F00201DB07116002D4012019
:101BA00003F01AFE84F31188BFF36F8F10BD00BFDE
:101BB000D4070020002270B5012104461046FFF72B
:101BC0006BFD0F4801F07AF80E4B984215D101F0E9
:101BD00085F826690C49304603F04DFB00280BDBE5
:101BE000012535642469084904F11C0003F043FB16
:101BF000002801DBE564002070BD6FF00400FBE706
:101C0000051D00000000AD0B146000001FB5002290
:101C10000123CDE90223094ACDF800D06B46CDF867
:101C200004D003F061FC002805DB4FF48042002360
:101C3000684602F0ABF905B05DF804FB15550000ED
:101C400030B4104B0C2202FB003301460020D3E9D4
:101C50000E529863EFF31180202484F31288BFF3AF
:101C60006F8F1C6C04F0C00444F002041C6480F309
:101C70001188BFF36F8F1DB12B46034830BC184746
:101C800030BC704784070020945D000010B4EFF36F
:101C90001182202383F31288BFF36F8F17480168E6
:101CA00041F002040460C80707D482F31188BFF32F
:101CB0006F8F012010BC01F023B84FF08041D1F8A4
:101CC0000C04D1F80C14C907EFD5EFF3118083F39E
:101CD0001288BFF36F8F0A490B6C03F0C00343F007
:101CE00002030B6480F31188BFF36F8F82F31188B6
:101CF000BFF36F8F002010BCFFF7A2BFD4070020F6
:101D00008407002010B1012804D07047034B1B6CDE
:101D10005B0701D1FFF794BF704700BF8407002025
:101D20002DE9F0413849BFF35B8F0746012251E8A6
:101D3000003F41E800200028F9D1BFF35B8F33B9A1
:101D4000324933484B60CB608A6003F0A7FA7B1EB0
:101D5000012B2BD8012F07D14FF08043D3F81C342F
:101D600003F00303012B21D003F0A5FE0546F8B9CB
:101D7000284B1B78E3B14FF080430222C3F80823BD
:101D80000646DFF894804FF08044D4F81824D4F845
:101D90001834D20315D503F00303012B01D0012F12
:101DA0000FD155B386F31188BFF36F8FBDE8F08173
:101DB000EFF31186202383F31288BFF36F8F012581
:101DC000DFE7ADB1304603F008FBD4F81835002B3F
:101DD000DBD1D4F80421002AD7D0C4F80431D4F8D8
:101DE00004310123C4F81835C8F88031A360CCE76A
:101DF0000021212003F0CFFEE7E74FF080430222CD
:101E0000C3F80423D2E700BF80070020700700203A
:101E1000A00700207F08002000E100E008B5074887
:101E200003F00BFE38B10648FFF73CFE0448FFF70D
:101E300063F8002008BD6FF01200FBE7D05D0000E2
:101E4000451E00000A2838B5074D044604D1AB688A
:101E50000D215B6828469847AB6803485B68E1B290
:101E60009847204638BD00BFD05D0000F0B54068FF
:101E7000057B01F01F0444EA4514056987B0002D75
:101E800064D0B2F5001F00F1100506D121462846A6
:101E900003F022FD002007B0F0BD01AE0027B2F52F
:101EA000800F0197776039D1B3F1007F14BF05230C
:101EB00004238DF804300023CDE904630393836881
:101EC00023FA01F111F001011AD1B2F1A07F17D16B
:101ED00004F01F03620903F5E0732AD0012A3BD105
:101EE0001F4A52F82330DB070AD40DF103063246AD
:101EF0002146284601F0E4F91A4B98421CD002967C
:101F000003AA2146284601F09DF8174B984220D19C
:101F100001222146284601F037FABBE7B3F1C06F32
:101F200005D0B3F1007F14BF01230223C1E70323CF
:101F3000BFE74FF0A042D4E73146284601F01EFA31
:101F4000094B9842DBD06FF00B00A4E76FF08500DF
:101F5000A1E76FF015009EE751F82330FFDE00BFC8
:101F6000000300500400AD0B0000AD0B38B5456810
:101F70002B69B3B11035284601F0F0F9044680B959
:101F80000146284601F0B6F9084B98420BD10849A2
:101F90002246284601F08EF9224605210620FFF749
:101FA0007BFB002038BD6FF00400FBE70000AD0BA9
:101FB000B51F0000420970B5034602D0012A17D0B0
:101FC00070BD0D4E326951680029F9D003F01F032E
:101FD00001250C689D400029F2D08A682A4002D071
:101FE0004B68304698472CB1236821461C46F2E7DF
:101FF000024EE7E72346F8E7BC5D0000A85D00005D
:102000002DE9F043466840F20635D006337B87B0B1
:1020100002EA050554BFC2F34010032001F01F0778
:10202000B5F5837F144647EA43178DF8030045D082
:102030000FD8062D18D007D8B5B1022D40D06FF0BB
:10204000150007B0BDE8F083B5F5807FF7D1012515
:102050000AE040F20222954234D0B5F5407F33D0F9
:10206000B5F5007FEBD102250123220303FA01F12C
:102070002CD57368C3F80815326982BB07F01F03BB
:102080007F0929D0012F77D13E4A02EB830284F4E5
:102090008033D2F80017C3F30043C4F3404444EA4A
:1020A000430421F4E16144EA800421F0070144EA99
:1020B00005230B43C2F800370020C2E70725D3E70A
:1020C0000425D1E70525CFE70325CDE7630344BF0A
:1020D0007368C3F80C15CFE74FF0A042D5E7103670
:1020E0000DF102023946304601F0EAF814F4403F9F
:1020F00080460CD13946304603F0ECFB224B984524
:10210000DAD19DF80210304601F032F9D4E701AB84
:102110004FF0000903AA39463046CDE90439CDE92C
:102120000199CDF80C9000F08DFF174B984286D1A5
:1021300014F4003315D09DF803308DF80E3084F47C
:102140008034C4F300444B4603AA394630468DF828
:102150000C508DF80D4001F02FF80B4B9842CDD06C
:102160006DE7CDE9043303AA0DF103033946304688
:10217000039300F067FFF0E703F5E07352F82330B4
:10218000FFDE00BF000300500000AD0B02780B69BA
:10219000012A08D0022A08D04AB9064A5A6203F135
:1021A000140001F0BFBE044AF8E7044AF6E7044A07
:1021B000F4E700BF0000AD0B0100AE0B0200AE0B58
:1021C0000100AD0B2DE9F04FD0F81090D0F804804D
:1021D00085B005460C461746029309F1040A4FF0F4
:1021E000FF324FF0FF33504601F0D0FE09F1140BDF
:1021F00000230022584601F0C9FE404601F07AFB58
:102200007B1E00260393B74201D8002322E0039BE4
:10221000217AB34283BF237D83F00403C3F3800399
:1022200000230193029B0093D4E90023284600F089
:102230004DF8034670B94FF480420023584601F030
:10224000A5FE98B1404601F065FB284600F02CF849
:102250006FF004034046029301F05CFB504601F02E
:1022600061FE029B184605B0BDE8F08FD9F8243016
:10227000034A934204F10C04EAD10136C3E700BFDC
:102280000000AD0B08B503464068826900F1080103
:1022900001F0ECFA034B984214BF6FF00F000020DE
:1022A00008BD00BF0000AD0B08B543681B68D3F83C
:1022B0000805D3F80C1501F033FC034B984214BF0A
:1022C0006FF00F00002008BD0000AD0B2DE9F041BC
:1022D00086B00C4647689DF83480154600211222CE
:1022E0000DF106001E4603F0BBFCBDF830208DF852
:1022F000052004F0010314F008028DF80430029662
:10230000049519D1A10704D4B8F1000F12D19BB9DB
:10231000202201A9384601F019FB0A4B98420ED041
:102320000B3398420CBF6FF00F006FF0040006B043
:10233000BDE8F0814022ECE76FF08500F7E7002070
:10234000F5E700BF0000AD0B036803F01F025B0957
:10235000026004D0012B034818BF002070474FF0E3
:10236000A0407047000300502DE9F04FDFF8609166
:10237000DFF860A185B01546834600EB810140F28D
:10238000FF18594503D1002005B0BDE8F08FDBF8F8
:1023900000305804C3F3C322C3F3080400F1918052
:1023A0001B0E19F80270444508BF4FF0FF34192B7B
:1023B00000F28A80DFE803F00D141A1D20261D8824
:1023C0008888883663888888888888888888667C32
:1023D0007F82C5F80C45621C5ED10BF1040BD0E77F
:1023E000C5F81445631CF8D000265FE0C5F8084521
:1023F000F1E7C5F81045F5E7661CC5F80845ECD0CF
:10240000002604E0601CC5F80C45E6D0012603A8B0
:102410000394FFF799FF039B012202FA03F3C0F82C
:102420000C3508E0C5F80845002FDBD1631CD4D07B
:10243000002632460627DBF80030019303F4004003
:10244000002818BF002203A8009218BF0126039499
:10245000FFF77AFF039C019B009A00EB8400C3F313
:10246000412CD0F800473B0243EA8C03134304EAB3
:102470000A04234343EA4603C0F80037ADE7C5F832
:102480000C45D1E7C5F86045621CDBF80030A4D0EC
:10249000C3F30043002BB9D003A80394FFF754FF04
:1024A000039B012606FA03F3C0F808353246C2E75B
:1024B000C5F86445E8E7C5F86845E5E7C5F86C4543
:1024C000E2E76FF015005FE76FF085005CE700BFA3
:1024D000C4610000F0F8FCFF2DE9F04104464768B4
:1024E0000D4603F0E8FA4FF0200888B9264B1B7818
:1024F00073B16426606803F0CBF8F0B9012003F0F3
:1025000005F9013EF6D10021212003F044FBF0E75C
:10251000EFF31186314688F31288BFF36F8F60683E
:1025200003F0B6F8A8B986F31188BFF36F8FEFE711
:1025300086F31188BFF36F8FE5E7EFF3118631461D
:1025400088F31288BFF36F8F606803F0A1F800284A
:10255000EED0FB691D706368FA691B680020C3F840
:1025600044250122C3F84825C3F82001D3F82041AF
:10257000C3F85801D3F858019A6081F31188BFF36A
:102580006F8FBDE8F08100BF7F080020F7B50546DA
:10259000002201210220FFF77FF80220FFF760F8F8
:1025A0006B6818681A69C0F82425997D5A7D0A431A
:1025B000198B1B7D0B431343C0F86C356E68D6E94D
:1025C000004313F0010348D02F6907F1080003F01E
:1025D000A9F8304B98425AD1387A04F10C0204F52C
:1025E000907103F095F8387A012707FA00F000F0AF
:1025F0005FFB0823C4F80035F369C4F844350023B1
:10260000C4F84835A760D4F85831002BFBD000211E
:10261000C4F800156B68DC6801AA204603F00BF8CB
:10262000002805DB019B226819791868FFF79CFEDA
:102630006A6813680821C3F80015117A51B9126A43
:10264000C3F834250122C3F83825C3F81011D3F894
:1026500010111A60002003B0F0BD0822C4F8002554
:10266000F269C4F84425C4F848350123A360D4F8BE
:102670002031002BFBD00023C4F82031D4F82031C6
:102680000123E3604FF48073C4F80433BBE76FF0B9
:102690000400E0E70000AD0B70B5012383400E4A53
:1026A000BFF35B8FDC4352E8001F01EA040542E8F8
:1026B0000056002EF7D1BFF35B8F4FF4803282407B
:1026C0000648C0F80823BFF35F8FBFF36F8F0B423C
:1026D00014BF0120002070BD000800200010014040
:1026E00070B40E49D1E90034D01AC31844F1000483
:1026F00022F07F46C1E90034A6F50013B3F5400F80
:1027000009D2074B1B681A0A1B069C19054B42F19C
:102710000005C3E9004570BC02F09CB8A00500208C
:1027200004080020A805002011B3BFF35B8F01232C
:10273000104A834052E800CF4CEA030C42E800C143
:102740000029F7D1BFF35B8F0B4A4FF480338340EE
:10275000C2F80433094BBFF35B8F1B68BFF35B8F79
:10276000C340DB0742BF064B4FF40032C3F80021E1
:10277000704700BF0008002000100140FC07002047
:1027800000E100E00D4B1868010A0006BFF35F8FFF
:102790000B4BD3F80435181841F10001B3F5801F35
:1027A0000AD2084BD3E90023904271EB030303D212
:1027B00010F1807041F10001704700BF0408002053
:1027C00000100140A80500202DE9F04F85B0164605
:1027D0001F469DF840A00446FFF75EFF0190FFF7FB
:1027E000D1FFB04271EB070354D23E4B301A67EB76
:1027F0000101984271F100014FD23B4B03EB0413EE
:10280000D3E902239F4208BF96425ED037494FF476
:10281000803804F1500508FA04F8AD00C1F8488387
:102820002046ADB202F065FF26F07F4B05F18045F2
:1028300004F5A87305F58835DC464FF003090293CB
:10284000029A2CF07F4341F82230C1F84483D1F83A
:102850000435274A6FF00200C01A604420F07F4020
:10286000904232D9286868B1D1F804350393A3EBBC
:102870000B0020F07F40B0F5000F26D9204602F073
:1028800038FF039BBAF1000F07D109EB030C09F1E4
:102890000109D5E7BAF1000F09D06FF01505204600
:1028A0000199FFF741FF284605B0BDE8F08F0123ED
:1028B000104ABFF35B8FA34052E8000F184342E871
:1028C00000010029F8D1BFF35B8F07490E9823015F
:1028D00001EB0412C8500F9B5360C2E90267002548
:1028E000DDE700BF010080009005002000100140DE
:1028F000FDFF7F00FC0700207FB51C4C1C4BC4F87B
:102900000833C4F848331B4B00254FF0FF304FF01D
:10291000FF31C4F80855C3E902014FF48033C4F80D
:102920000433154B02264FF400320121C4F804632E
:102930001120C3F880212A46FEF7AEFE1120FEF7D3
:102940008FFE0E4A0123A360236013600C4B0D4AD7
:102950000093CDE9015500232846FFF735FF3046A7
:10296000FFF7DEF9284604B070BD00BF001001403B
:1029700003000F009005002000E100E000080020A7
:10298000E1260000FFFF7F002DE9F7432F4CD4F82C
:10299000043399070BD5D4F8043143B12C4A0023F2
:1029A000C4F80431D4F80431136801331360D4F847
:1029B0000433DA0329D5BFF35B8F264B53E8002F8E
:1029C00022F0010143E800100028F7D1BFF35B8F2C
:1029D000D30702D4D4F84031BBB10025C4F840512C
:1029E000D4F84031FFF7CEFEEFF31182202383F3BA
:1029F0001288BFF36F8F184BD3E90267B042B94119
:102A000006D282F31188BFF36F8F03B0BDE8F08365
:102A10004FF0FF384FF0FF39C3E90289D3E90010C6
:102A20001D604FF48033C4F84833C4F84051D4F8E3
:102A3000403182F31188BFF36F8F0029E5D00090F9
:102A400032463B4628468847DFE700BF001001407A
:102A500004080020FC0700209005002030B5431C2E
:102A6000124C85B005D08442A8BF0446012CB8BFE3
:102A70000124FFF787FE0E4B0C4DD3E90013401ADB
:102A8000B0F5000F10D22218AA4228BF2A465218C9
:102A90004FF0000007490091CDE9010043F1000328
:102AA000FFF792FE05B030BD2A46F0E7FFFF7F003A
:102AB000A0050020E126000008B5FFF763FE024BE9
:102AC0001B68C01A08BD00BFA0050020024AD2F84A
:102AD0000034002BFBD0704700E0014010B54FF0F0
:102AE0008053D3F830210D2A55D14FF08041002278
:102AF000C1F80C21C1F81021C1F83825464AD3F895
:102B00000404C2F82005D3F80804C2F82405D3F859
:102B10000C04C2F82805D3F81004C2F82C05D3F829
:102B20001404C2F83005D3F81804C2F83405D3F8F9
:102B30001C04C2F84005D3F82004C2F84405D3F8B9
:102B40002404C2F84805D3F82804C2F84C05D3F889
:102B50002C04C2F85005D3F83004C2F85405D3F859
:102B60003404C2F86005D3F83804C2F86405D3F819
:102B70003C04C2F86805D3F84004C2F86C05D3F8E9
:102B80004434C2F87035D1F80034DB0709D56FF052
:102B90000103C1F800344FF08053D3F830310D2BCE
:102BA0000CD14FF08053D3F834313BB14FF01023A8
:102BB000D3F808224FF08043C3F858254FF0102374
:102BC000D3F80022002A03DBD3F80432002B22DAE8
:102BD000124901234FF01020C1F804351224FFF7E9
:102BE00075FFC0F80042FFF771FFC0F80442FFF71D
:102BF0006DFF0023C1F80435FFF768FFBFF34F8F67
:102C00000749084BCA6802F4E0621343CB60BFF384
:102C10004F8F00BFFDE710BD00C0004000E0014045
:102C200000ED00E00400FA0530B50468CCB1BFF354
:102C30005B8FB4FA84F3C3F11F03DBB201229A4025
:102C400024EA020250E8005FA54204D140E8002CCB
:102C5000BCF1000FF6D1BFF35B8FE6D102480B70D9
:102C600030BD0248FCE700BF0000AD0B0200AD0B19
:102C700010B50368CB40DB0714D401238B400268F6
:102C8000BFF35B8F43EA020150E8004F944204D146
:102C900040E8001CBCF1000FF6D1BFF35B8FEED112
:102CA000014810BD0148FCE70000AD0B0400AD0B6E
:102CB000014BC3F80405704700F00140044B1A793A
:102CC00022B9012218601A71024870470248704701
:102CD000080800200000AD0B0C00AD0B08B5074B39
:102CE0001B682BB10020FEF7C9FC08B9FEF7B8FC41
:102CF0004FF080430022C3F8182508BD08080020C3
:102D000010B510B1012843D010BD4FF08043D3F867
:102D10001814D3F81824C80321D502F00303012B9B
:102D200004D013B1002002F0FFFC00234FF08042DA
:102D30000220C2F8183508224FF4827303F1804351
:102D40000021196002F180421C6801241460154AB8
:102D500012680AB34FF08043C3F80403D4E7D3F8F2
:102D60001424D107E1D5D3F81C249207DAD40D4AF4
:102D700012681AB10222C3F80423C5E7D3F804216C
:102D8000002AFBD00022C3F80421D3F80431BBE7AA
:102D900000224FF48073D1E71A68002AFCD0196032
:102DA0001B68B1E708080020F8B54FF08043184FC2
:102DB000D3F804430125002604B9F8BDB4FA84F021
:102DC000C0F11F00830003F580739BB203F18043C1
:102DD00005FA00F2196892B224EA02040029EBD045
:102DE0001E601B684FF08043022AC3F808230BD1F2
:102DF000D3F81814D3F81814890705D1C3F8185557
:102E0000C3F804239D60D7E73B68C0B29847D3E777
:102E100008080020036803F01F025B09026004D069
:102E2000012B034818BF002070474FF0A0407047A7
:102E300000030050034A430900F01F00D35C18440C
:102E4000C0B27047DA61000070B50546FFF7F2FFC7
:102E50000C4C08300E4634F81030DA0508D5C3F3B0
:102E6000432304EBC302284654F833305268984792
:102E7000A3682BB1E26831462846BDE87040184788
:102E800070BD00BFFC04002008B5FFF7D3FF034B63
:102E9000083033F81000400B08BD00BFFC040020D0
:102EA00008B5FFF7C7FF034B083033F81000C0F335
:102EB000400008BDFC04002008B5FFF7BBFF034B32
:102EC000083033F81000C0F3401008BDFC040020A7
:102ED000034611F0010010B5CCB20DD1A207C4F326
:102EE000400012D5094AD2F820055860C2F82005E2
:102EF000003818BF012008E04FF0A041D1F820258C
:102F00001A60C1F82025002AE8D010BD0003005047
:102F100010B5FFF78FFF124A083032F81030D9058C
:102F20001CD5C3F3432123F4F85322F8103002F1E7
:102F30000E04002034F8023F13F4807F03D0C3F363
:102F4000432399420AD001302A28F3D1002342F8C2
:102F500031300448BDE81040FFF78ABE10BD00BF05
:102F6000FC04002068050020F0B50546002004465A
:102F7000012607468C420BD1114BD3F87C2132B18C
:102F80000022C3F87C21D3F87C3140F00040F0BD32
:102F9000E3B29B0003F580729B0806FA03F31D421F
:102FA0000BD002F1804202F5C042D2F800C0BCF161
:102FB000000F02D01760126818430134DAE700BF2F
:102FC00000600040F7B506460846FFF733FF194F8B
:102FD00000F108050C4637F81530DB0727D53046D9
:102FE00002F054FC2046FFF767FF40B12046FFF790
:102FF0004BFF316800F5A270002341F820302046D5
:10300000FFF786FF002301A827F815300194FFF78A
:1030100001FF019B00EB8300074BD0F80027134012
:1030200043F00203C0F80037044803B0F0BD044881
:10303000FBE700BFFC040020F0F8FCFF0000AD0B34
:103040000400AD0B2DE9FF41164680460846FFF708
:10305000F1FE0D463168044609B32846FFF720FF0C
:1030600018B12846FFF728FF10BB0023CDE9003335
:103070008DF80E308DF80F300DF10F020B462846FB
:103080000DF10E0102F0AAFB474A04F1080132F8E3
:10309000113023F0020343F0010322F8113073686A
:1030A00063B328461F785968FFF7FAFE10B1D1B113
:1030B0003E4826E03C4A04F1080032F8103023F084
:1030C0002003DB04DB0C22F8103061B1032FEFD8B2
:1030D0007168496891F800C0D8F80010A7B90CF5DC
:1030E000A27C41F82C70304A04F1080132F811300A
:1030F00023F01C0343EA870322F81130B3684BBB6B
:103100002B4804B0BDE8F08101EB8C0143EA4C335D
:10311000D1F810E52EF0030EC1F810E5D8F8001034
:1031200001EB8C0E43F02003DEF8101522F810306E
:1031300021F44F3121F44071CEF810152902DEF848
:10314000108501F47C5141EA074141EA0801CEF8BB
:103150001015C8E7D3E900672846FFF7D9FE002E0F
:10316000CED0114DD5E90023964203D19F4201D123
:10317000002209E00F480DF10F01FFF755FD0C4B40
:103180009842BED19DF80F2045F8326005EBC2038E
:1031900008345F6035F8143043EA422343F4807307
:1031A00025F81430ACE700BFFC0400200400AD0B90
:1031B0000000AD0B680500202DE9F0430C4685B0FA
:1031C0008046204611461E46FFF734FE054629B3C9
:1031D0002046FFF765FE18B92046FFF76DFE18BBC5
:1031E000314F05F1080937F8193013F01C0F02D0E0
:1031F0004B78012B18D001238DF80F300023CDE937
:1032000000134A1C8B1C20460DF10F0102F0E6FA58
:1032100037F8193043F0030327F81930002E41D056
:103220002046FFF73DFE18B9204805B0BDE8F08301
:1032300096F800C0D8F800301B4F0CF5A2720021A0
:1032400043F8221005F1080237F8121021F020018E
:10325000C904C90C27F8121075781DB3D8F80000FE
:10326000B67800EB8C002D04D0F8103523F49913B8
:1032700023F4F853C0F81035230203F47C5305F40B
:1032800040353605D0F810E52B4306F4801641EAA8
:103290004C31334341F0200143EA0E0327F812106A
:1032A000C0F810350248C0E7FC0400200400AD0B54
:1032B0000000AD0B014BC3E902127047FC04002073
:1032C00010B508461446FFF7F7FD50B10846FFF762
:1032D000B1FD054B083033F8103004485B0B237008
:1032E00010BD0348FCE700BFFC0400200000AD0B4C
:1032F0000400AD0B70B5164D95F8744006462CBB16
:103300002146542205F1100002F0AAFC30686E6ECE
:1033100021468E420ED10023C0F87C31D0F87C319A
:1033200040F30730FEF79CF901230A4885F8743012
:10333000EB6670BDCBB29B0003F580727C2B08BF9F
:10334000845001F1010108BF8358E2E70248F0E729
:10335000FC0400200000AD0B0C00AD0B034B93F8F8
:103360007400003818BF0120704700BFFC04002023
:103370000148FFF77DBC00BF640500200148FFF74E
:1033800053BC00BF6405002073B503681646D3F82C
:103390000423002AA8BF4FF000420546A8BFC3F887
:1033A000042308460C46FFF787FD00B30846FFF7E5
:1033B00077FD0146D8B92046FFF766FD04B2A400A8
:1033C00004F5807203462868815029688258214498
:1033D000D1F8102542F00102C1F810252EB129685C
:1033E000012202FA03F3C1F8043302B070BD204693
:1033F000FFF720FD0F4B083033F81030C3F3820382
:10340000042B12D0052B12D001A80194FFF702FD66
:10341000019AD0F81035D34003F00103991C2046DF
:1034200002B0BDE8704002F022BA0321F7E70221A2
:10343000F5E700BFFC0400202DE9F04F694BDFF8F1
:10344000A881D3F80403D8F86410C0B289B040F062
:103450000040FFF789FD051E2FDAC24600235AF807
:10346000701F06A8CDE90633FFF732FD5F4B0193CD
:103470000DF118094FF0000B019A12F8013B01926F
:10348000DA0803F007031AF8022022FA03F3DA0736
:103490001CD409F10409BBF1000F14D0D8F8641052
:1034A0004FF00040FFF760FDD8F8701006A8FFF756
:1034B0000FFD0028DAD125F000450124002D79D137
:1034C00009B0BDE8F08F4FF0010BD5E7484B5B44E6
:1034D0000293D9F800100029DBD0029B91FAA1F1E8
:1034E0001C78B1FA81F141EA44142046FFF7A2FCAE
:1034F0000830059438F81070C808BB0819F8002087
:10350000039301F00701012303FA01F122EA01020A
:1035100009F8002005A8FFF77DFC059A039B02F53A
:10352000E072C7F3820650F822205B073746C2F3E9
:10353000014224D520463946D6B2FFF785FC05A8BE
:103540000594FFF767FC059B03F5E07350F8233003
:10355000C3F301439E4207D10021204602F087F9C0
:103560003146204602F083F905A80594FFF752FC86
:10357000059B012202FA03F3C0F82035A9E7022ACD
:103580000CD10321204602F072F906F00503012B4D
:10359000EAD139462046FFF757FCE5E702212046ED
:1035A000039202F064F9032EF3D0039A032ADBD1CD
:1035B000022EEDE795FAA5F3B3FA83F304FA03F2CA
:1035C0009B0003F1804303F5C04325EA0205D3F8CD
:1035D0001005D3F81015C0F30520C1F30141FFF722
:1035E00033FC6BE700600040FC040020EA6100004F
:1035F000EA61000001460148FFF716BB7405002090
:1036000030B500F01F04400911D0012812D10C4838
:1036100000EB84001B02D0F800570A4C43EA8202F8
:103620002C4042EA41012143C0F8001730BD4FF061
:10363000A040EDE704F5E074002353F82430FFDEEA
:1036400000030050F0F8FCFFCB7B10B433B9D1E994
:1036500000420368C3F80845C3F80C2503688A686C
:10366000C3F8242503793C225343054AD3582BB190
:10367000006810BC40F30730FDF7F2BF10BC704784
:103680001008002013B53B4B01930023C0F8043110
:10369000D0F80421C0F82431D0F82421C0F81C311E
:1036A000D0F81C21C0F80831D0F80821C0F8003249
:1036B0004B6381F82F300123036291F82D209A4249
:1036C00018BF83604B6B8A6A934204460ED24A6AE3
:1036D000D35CC0F81C350B6803B340F286238B60C3
:1036E0008B682548C4F8043302B010BD91F82C3023
:1036F00013B10123C361EEE70B6A13F0400F4FF0E3
:10370000010316BFC361436181F82D30E3E7204612
:1037100002F0E4F828B1019B013B0193019B002BCF
:10372000F5DC91F82F305BB91348019B002BDBDCF3
:103730000023C4F8003505231048C4F80035D3E74A
:10374000D4F8C434C4F8C4348BB10D4A0B4813F018
:10375000010F18BF104613F0020F02F1010218BF4B
:10376000104613F0040F074B18BF1846DDE7034857
:10377000DBE700BFA08601000000AD0B0100AD0B30
:103780000000AE0B0200AE0B13B5334B01930023C8
:10379000C0F80431D0F80421C0F82431D0F8242135
:1037A000C0F81C31D0F81C21C0F80831D0F808212D
:1037B0004B6381F82F308B6A012B044617D10B6ABB
:1037C0005B0614D40223C4F800320123236291F86B
:1037D0002D20022A18BF23600B688BB140F286238C
:1037E0008B608B681D48C4F8043302B010BD012300
:1037F000E9E7204602F072F828B1019B013B0193F2
:10380000019B002BF5DC91F82F305BB91348019B2D
:10381000002BEADC0023C4F8003505231048C4F867
:103820000035E2E7D4F8C434C4F8C4348BB10D4A8F
:103830000B4813F0010F18BF104613F0020F02F1EE
:10384000010218BF104613F0040F074B18BF1846AB
:10385000DDE70348DBE700BFA08601000000AD0BF9
:103860000100AD0B0000AE0B0200AE0B2DE9F843DA
:1038700090F804901C4E07463C2000FB09F03518D8
:103880000C4695F82E1061BBA96032506B6085F82C
:103890002D1085F8311085F83010CCB1637B85F898
:1038A000383094F80E8085F83980B8F1000F0BD1CC
:1038B0002068062303224146FFF7A2FE6068062324
:1038C00003224146FFF79CFE21463846FFF7BCFE27
:1038D0003C2303FB09660548012386F82E30BDE82A
:1038E000F8830348FBE700BF100800200000AD0B81
:1038F0000C00AD0B036802790521C3F80015044BD9
:103900003C2101FB0233022283F82E20704700BFC6
:103910001008002003680B4A0179C3F80823D3F884
:10392000002222F00302C3F800220022C3F800257F
:10393000054B3C2000FB0133012183F82E1083F856
:103940003020704786420400100800202DE9F0471F
:10395000314F0479D0F800903C2303FB04730D46EB
:1039600093F82D30012B944604D10B78012B06D10E
:103970002A4811E0022B02D10B78012BF8D13C260A
:10398000274BC9F8083306FB047696F830302BB184
:10399000B3682448C9F80433BDE8F0878CF0040309
:1039A000C3F3800386F83030C6F820C0A846B8E8D4
:1039B0000F0006F10C0EAEE80F00D8F80030CEF87C
:1039C00000306B68B362EB6873626B78C9F8883556
:1039D0002B78C4EB041A012B07EB8A0A17D09BB98A
:1039E000CCF3401C3C2303FB04735146484683F848
:1039F0002CC0FFF747FE3C235C433A193B59002B90
:103A0000CAD182F83030C7E74FF0010CEAE75146DF
:103A10004846FFF7B9FEEEE7100800200500AD0BA1
:103A2000864204000B00AD0BF0B5324C324887B033
:103A3000214601F053FF002859D194F82F70FFB9A7
:103A4000227B931E012B1BD8606AA369984217D171
:103A5000E36963626369A362236A274884F82D706F
:103A6000C3F34013032A84F82C3004D107B0BDE817
:103A7000F040FFF707BE07B0BDE8F040FFF784BE97
:103A80001E4E0FCE01AD0FC533682B6047B31A4AE7
:103A9000D2F8C434C2F8C43413F0020106D00123B2
:103AA0008DF80030002384F8303007E013F0040272
:103AB00009D002238DF8003084F83010D4E90031A9
:103AC0006846984713E013F0010305D003238DF8EF
:103AD000003084F83020F1E704228DF80020E2E77E
:103AE000236A8DF800705B0784F83070E6D507B064
:103AF000F0BD00BF10080020003000401C0800206E
:103B0000036803F01F025B09026004D0012B034825
:103B100018BF002070474FF0A040704700030050CE
:103B2000F7B5064601F072FF084601F06FFF01A8E5
:103B30000196FFF7E5FF019B2E4D00EB83000C463D
:103B4000D0F80037019440F20D612B400B43C0F8D0
:103B5000003701A8FFF7D4FF019B00EB830001278A
:103B6000D0F800372B400B43C0F80037042001F099
:103B7000CDFD092501A80194FFF7C2FF019AD0F8F5
:103B80001035D340DB0715D401A80196FFF7B8FF25
:103B9000019B07FA03F3C0F80C35042001F0B6FDD1
:103BA000304601F033FF013D042001F0AFFD15F078
:103BB000FF05DFD101A80194FFF7A2FF019A0123BD
:103BC0009340C0F80C35042001F0A0FD204601F020
:103BD0001DFF042001F09AFD01A80194FFF790FF5A
:103BE000019AD0F810350448D34003F00103C01AFD
:103BF00003B0F0BDF0F8FCFF0100AD0B08B5144BAD
:103C0000A8220021184602F02BF803220261114974
:103C10004261114A8161C2614FF4806202620022F6
:103C200082624262C26201660C494166102181666D
:103C300003460267C2664267BFF35F8F084911F807
:103C4000010D98540132102AF9D1BFF35F8F08BDDE
:103C500010040020EC610000100000200000002093
:103C60000562000010B4BFF35F8F0B4A0B490023BD
:103C7000C85C12F8014D844209D10133102BF7D1F1
:103C80000023BFF35F8F23B110BCFFF7B7BF012341
:103C9000F7E710BC704700BF056200001004002069
:103CA00038B5EFF31185202383F31288BFF36F8FAC
:103CB000064B9C6801F0D4FE85F31188BFF36F8F2B
:103CC0002046BDE83840FDF771BC00BF4C0800201D
:103CD00038B5094B53F82040013053F82050A54225
:103CE00000D838BD636823B1204601F0BCFE08341B
:103CF000F5E723689847FAE7E460000070B52B4BBE
:103D00002B4C2C4D012286B003201A70FFF7E0FFE8
:103D1000FDF73EFA01F0C3FE0420FFF7D9FF264667
:103D2000AE4204F1300410D300F0C6FA204C224E0B
:103D3000AC4226D300F0D4FAFDF700F81F4A137BFB
:103D400023F00103137306B070BD54F80C3C0593C7
:103D500054F8103C049354F8143C039354F8183C62
:103D6000029354F81C3C019354F8203C009354E90E
:103D70000A2354E90C0100F02FF954F8303C5E6539
:103D8000CDE7D4E90A23B3F1FF3F08BFB2F1FF3F0B
:103D900005D052EA0301206803D100F061FB303402
:103DA000C6E73146183000F0DFFCF8E77F08002056
:103DB000785F0000785F00008F5B00003006002015
:103DC00008B50348034A0021121A01F064FE08BD39
:103DD000900500208408002070B5002386B00122E1
:103DE000CDE90423134E144D01930F22CDE9023285
:103DF0001249142303FB005506EBC01604464FF48A
:103E0000C07000FB04110E4B00954FF4A0723046B9
:103E100000F0E2F8737B0B4AEE6023F00403737347
:103E20004FF4046304FB033313442C746B6006B03B
:103E300070BD00BFB00500204C080020001100201C
:103E4000A15A0000C0080020BFB50020FFF740FFC6
:103E50002C4B83F308882C4D2C4E6B692C4F43F46C
:103E600000736B610024E02385F82230EC772C7618
:103E70006C76AC7685F820406B6A43F4E0236B6285
:103E800085F82340FDF70EFBFDF78AFC4FF0FF336A
:103E9000AB62EB62FDF74AFDFDF7A6FC1D4BB3607C
:103EA00040F201129A81C3E91844DC6601F0C4FDB6
:103EB0000120FFF70DFF0220174DFFF709FF00F06B
:103EC00043FA164B75610593012315490094CDE91A
:103ED00003434FF480623B46CDE90144284600F09D
:103EE0007BF86A7B064622F0040228466A7301F0DA
:103EF00022FE2046FFF770FF3A4631462846FDF77E
:103F000031FC00BF0011002000ED00E04C08002053
:103F1000FD3C0000B00600203006002006620000D4
:103F20008012002070B5EFF31186202383F31288EE
:103F3000BFF36F8F0468A0421AD0CCB1D4E900322D
:103F400013605A60637B002523F002036373C4E9A6
:103F50000055A56004F1180001F04FFE2046A5674A
:103F600001F0E9FD31460848BDE8704000F07EB937
:103F7000D0E902329A4218BF0133836086F3118878
:103F8000BFF36F8F70BD00BF8008002013B5EFF343
:103F90001181202484F31288BFF36F8F846844B1A9
:103FA000013C846081F31188BFF36F8F002002B061
:103FB00010BD52EA030406D181F31188BFF36F8F5D
:103FC0006FF00F00F3E7CDE900230246014800F04F
:103FD00021F9ECE7800800202DE9F043073285B095
:103FE00022F007020E461F461099017300F1580394
:103FF0007F32C0E916330446002322F03F02042139
:10400000836041733F2A0F98A073C4E90633E373BA
:1040100006F14009A2F1400805D883F31188BFF3E7
:104020006F8F084602DFB51829462046FDF7C2F813
:1040300007300E9B20F00700A066C4E91898029391
:104040000D9B01932D1A0C9B00932A463B4631464B
:104050002046FDF755FB00236365044B9B6803B1C5
:10406000DB6EE366284605B0BDE8F0834C0800200F
:10407000094A93686FF00A019967084958674B68C5
:1040800043F080534B60002383F31188BFF36F8F9D
:104090009368986F704700BF4C08002000ED00E067
:1040A00070B590F90D20437B002A39DBD90637D152
:1040B0008269002A34D11D4C63F07F03224643738A
:1040C00052F8183F93422CD1E169C0E90021086001
:1040D000E06111E09942F8D01B68002BF5D090F90F
:1040E0000E5093F90E60B542F4D0AE42F2DD59683D
:1040F000C0E9003108605860A569954200D005B953
:10410000E568A3685A7BD20604D1DA897F2A01D9EF
:10411000AA6942B1AB4202D0284600F083FA656139
:1041200070BDE169D9E76361FAE700BF4C08002080
:1041300038B590F90D20437B002A014604DA03F0DC
:104140007F03437301F0BDFC0D4D2A46AB6852F866
:10415000184F944200D004B9EC688B4207D05A7BC8
:10416000D20604D1DA897F2A01D9A2692AB1A342F1
:1041700002D0204600F056FA23466B6138BD00BFDE
:104180004C08002070B590F90D20437B002A0146B1
:1041900004DA03F07F03437301F093FC4B7B1C4C68
:1041A00063F07F0322464B7352F8183FE069934255
:1041B00007D1C1E900200160E16111E09842F8D027
:1041C0001B68002BF5D091F90E5093F90E60B542A3
:1041D000F4D0AE42F2DD5868C1E9003001605960A8
:1041E000A569A368954200D005B9E5688B4207D060
:1041F0005A7BD20604D1DA897F2A01D9AA692AB169
:10420000AB4202D0284600F00DFA2B46636170BD28
:104210004C080020F8B5124B0C461146114A98681C
:104220001060DDE90676EFF31182202282F3128816
:10423000BFF36F8F9D68284601F055FCB6F1FF3F34
:1042400008BFB7F1FF3F06D007493A46334605F1AC
:10425000180000F089FA2046BDE8F840FFF708BFD3
:104260004C0800206C0800208F5B000049B9EFF378
:10427000058030B9054B5A699B689A4201D0FFF717
:10428000F7BE81F31188BFF36F8F70474C08002091
:10429000034648B9EFF3058232B9064A516992687C
:1042A000914201D0FFF7E4BE83F31188BFF36F8F13
:1042B000704700BF4C080020EFF31181202383F3E7
:1042C0001288BFF36F8F054B9A68D37B013BD37382
:1042D00081F31188BFF36F8F704700BF4C08002037
:1042E00070B5EFF31186202383F31288BFF36F8F2D
:1042F000144DAB68DA7B0132DA732A4652F8184F54
:10430000944200D004B9EC685A7BD20604D1DA8911
:104310007F2A01D9A2692AB1A34202D0204600F027
:1043200081F923466B6186F31188BFF36F8FEFF33A
:104330001180202383F31288BFF36F8FBDE8704094
:10434000FFF7A6BF4C080020024B03F11802C3E997
:10435000062270474C08002070B5EFF31186202329
:1043600083F31288BFF36F8F1B4CA168E0690B6861
:10437000814214BF1A46002249680B605960A36845
:10438000E1692AB9154AC3E900210B60E3610CE039
:1043900093F90E0092F90E50A84218D0854216DD0E
:1043A0005168C3E900210B605360A5690B4B9D4226
:1043B00000D005B9E568A3689D4202D0284600F008
:1043C00031F965613046BDE87040FFF751BE8A4261
:1043D000D8D01268D5E700BF4C0800206408002040
:1043E00050EA01032DE9F04105460E4604D1FFF7DE
:1043F000B3FF0020BDE8F081831C71F1FF3324DBA3
:1044000001F01CFC4419EFF31188202383F3128878
:10441000BFF36F8F0F4F104BB8681860FFF788FE1F
:10442000B8680E492A463346183000F09DF9BA683C
:10443000537B43F0040353734046FFF719FE01F02A
:10444000FDFB201A20EAE070D4E76FF00104241A83
:10445000D9E700BF4C0800206C0800208F5B0000EB
:1044600038B50446183001F0C8FBEFF3118520235E
:1044700083F31288BFF36F8F637B5A0704D485F3ED
:104480001188BFF36F8F38BD23F004036373204698
:10449000FFF706FEEFF30583002BF0D12946024813
:1044A000BDE83840FFF7E2BE80080020014B986865
:1044B000704700BF4C0800202DE9F8430446EFF395
:1044C0001187202383F31288BFF36F8F067B16F0CA
:1044D00001060DD087F31188BFF36F8F002383F39C
:1044E0001188BFF36F8F0423184602DFBDE8F883FD
:1044F000437B1A0704D587F31188BFF36F8FF5E765
:10450000D90943F0080250D14273A36813B1204681
:1045100001F0DFFA04F1180001F06FFBA56D04F162
:104520005808A84511D04FF0000975B1284601F090
:10453000D0FA05F1180001F060FBC5F87890284624
:10454000FFF7AEFDA56DA845EFD11C4DAB689C42B1
:1045500004D1EFF30586003E18BF0126D5F8188078
:10456000174A904502D0B8F1000F01D1D5F80C8060
:10457000434502D0404600F055F8C5F8148046B1D6
:10458000104BAB6040F201129A810022C3E918225D
:10459000DA66AB689C42AED1EFF30583002BAAD15B
:1045A0003846BDE8F843FFF763BD03F07F0343F0EF
:1045B0000803437301F085FAA7E700BF4C08002009
:1045C00064080020B0060020044BC01A044BC01041
:1045D0005843044B01221A54704700BF3007002093
:1045E000ABAAAAAA80080020C3897F2B12D80A4B45
:1045F0001B6863B1094B90F90E201B689A4209DBD6
:10460000437BDB0606D1064BC31A18BF012303F018
:10461000010070470023FAE77408002070080020AA
:10462000B005002070B50E4B0E4C1E7C06EB460309
:1046300004EBC3040546204601F0DFFA0A4B0022D2
:1046400028469A55FFF7D0FF48B1084B08491A6829
:10465000013A2046D317BDE8704000F085B870BD20
:104660004C0800203007002080080020740800203B
:10467000C945000038B5EFF31185202383F3128874
:10468000BFF36F8F104B114A9C681068A04206D18F
:10469000FFF7C8FF85F31188BFF36F8F38BD002186
:1046A0001B7C11600A4AD35C002BF3D02046FFF735
:1046B0009BFF0028EED0637BDB0602D12046FFF78C
:1046C00061FD2046E4E700BF4C0800206C08002094
:1046D000800800200748084A084908B5121A01F066
:1046E000DCF90748074A0849BDE80840121A01F0FA
:1046F000D4B900BFC00400208A0500202462000055
:10470000B8040020C00400201C620000024B18689E
:10471000984208BF0020704778050020034B1B68B3
:104720000BB9FEF7C9B90020704700BF7808002018
:1047300030B570B10B4B5B6898420AD0036843B147
:10474000D3E90421D0E90445121941EB0501C3E97D
:104750000421D0E9003213605A600023C0E900331D
:1047600030BD00BF78050020B3F1FF3F08BFB2F1B4
:10477000FF3FF8B504461D4616465AD08160EFF358
:104780001187202383F31288BFF36F8F013275F1F5
:10479000FF3321DA2C49D1E900206FF001039B1A85
:1047A0004FF0FF3262EB00009E1B60EB0500012E14
:1047B00070F1000301DA01260020C4E90460FFF76C
:1047C000A5FF224E84467068BCF1000F0DD1C4E9EC
:1047D0000060046074601CE0FFF7A0FF013645F143
:1047E0000005361845EBE070E7E7DCE90425D4E97D
:1047F0000431934271EB050E1CDAD21ADCF8043056
:1048000065EB0105CCE90425C4E900C31C60CCF8C4
:104810000440FFF77BFF844207D10D4B1C6824B98D
:1048200001F0D2F92146FEF719F987F31188BFF399
:104830006F8FF8BD9B1A61EB05018445C4E9043113
:10484000C5D0DCF800C0BFE748070020780500208D
:10485000780800202DE9F047EFF31185202383F33A
:104860001288BFF36F8FDFF8A090DFF8A080C9F83F
:104870000000FFF74BFF00260027D9F80030D8E9E9
:1048800000ECD91750B1D0E90442A34271EB020AFF
:104890001ADAE41A62EB0102C0E9044213EB0E03D8
:1048A0004CEB01010024C8E90031C9F8004001F0D7
:1048B0008BF92146FEF7D2F885F31188BFF36F8F8D
:1048C000BDE8F047FFF7D6BE14EB0E024CEBE473E5
:1048D000C0E90467C8E90023FFF72AFF85F31188C0
:1048E000BFF36F8F83689847EFF31185202383F31D
:1048F0001288BFF36F8FD9F800301B1BC9F8003046
:10490000FFF704FFB9E700BF780800204807002040
:1049100010B5EFF31184202383F31288BFF36F8F58
:10492000FFF7FCFE054A0346D2E90001181841EBE7
:10493000E37184F31188BFF36F8F10BD4807002027
:104940002DE9F04F8DB043680293837815469A079E
:10495000804640F10D8100240E78002E00F00A817F
:10496000252E0BD04B1C03930134029B414630464D
:1049700098470028C0F2F6800399EDE74E788B1C2B
:10498000252E0393F0D00027B946BB46BBF11F0F7D
:1049900038D8A6F12003102B0AD8DFE803F02A0943
:1049A00009300909092109090928092D09091F00E8
:1049B000A6F13003092B33D92A2E37D11BF0400F33
:1049C00055F8043B40F08280002BA7BF4BF0200B32
:1049D0009946C3F100094BF0280B01E04BF0010BA5
:1049E000039B13F8016B0393002ECFD130E04BF003
:1049F000020B4BF0040BF3E74BF0080BF0E74BF026
:104A0000100BEDE7BBF17F0F19D8A6F13003092B8E
:104A1000D2D81BF0400F03D00A2101FB0737DFE794
:104A20000A2101FB09394BF0200BD9E72E2E06D1C4
:104A30001BF0400F40F09E804BF0400BD0E76C2EF7
:104A400031D02BD8682E36D06A2E3CD04C2E3AD09E
:104A5000002F46F02003B8BF2BF04002A3F1650100
:104A6000BCBF1FFA82FB0027022901D9612B2FD17D
:104A7000073525F00705DFF8ACA2083507271BF03E
:104A8000080F66D00AEB070B56465E4563D1A4EBD0
:104A90000A0A06EB0A02A9EB07096FE1742E9FD000
:104AA0007A2E9DD0D4E71BF0800F18BF4BF4007B0B
:104AB0004BF0800B94E71BF4807F18BF4BF4007B16
:104AC0004BF4807B8CE74BF4207B89E71F4687E71C
:104AD000A6F16301122900F2F080DFE811F0130063
:104AE0004F00EE00EE00EE00EE004F00EE00EE0094
:104AF000EE00EE00EE00FE00E900EE00EE001B000E
:104B0000EE00AF0055F8043B8DF8183001270DF189
:104B1000180AB4E755F804AB834BBAF1000F08BF8D
:104B20009A461BF0400F14BF39464FF0FF315046F4
:104B300001F09EF80746A2E7029B414620209847D5
:104B400000280FDB013EB742F6D34C44A41BB1460C
:104B500098E74E46F7E716F8010B029B4146984747
:104B6000002892DA98F8023043F0040388F8023003
:104B70004FF0FF3420460DB0BDE8F08F1BF0800FE2
:104B800034D01BF4007F2CD0073525F00705AA464A
:104B900069685AF8080B2BF010050029ADB237DA16
:104BA000404261EB410145F480650DF1180B0A2389
:104BB0005A4601F069F8A0EB0B0301936B0662D52E
:104BC000019B25F001019F4289B240F3A180002E94
:104BD00000F0998015F0100240F09C80BB460D4615
:104BE00023E0AA465AF8040BC117D4E7AA461BF4DF
:104BF000807F5AF8041B01D10846F5E71BF4007FBB
:104C000015BF48B208B241F3C01141F3C031C2E749
:104C100050EA0103C9D11BF0400FC6D0002FC4D108
:104C20002BF0110295B2BB46019740F2064115EAFE
:104C300001021CBF0BF1010B00222CE02BF0100233
:104C40001FFA82FB0A231BF0800C49D01BF4007171
:104C50001DBF073525F00705AA46AA461ABF5AF810
:104C6000080B69685AF8040B50EA010545D12BF08E
:104C700016051BF0400FADB242D0002F40D12BF0F3
:104C8000170295B2019715F0100248D0019B002E33
:104C900042D103F1010B29075AD4EB0706D5D945B8
:104CA0006FDD0199A9EB0B035F18CB465B4649E02A
:104CB0004BF0100B10237826C5E7782B04D1C6F1F2
:104CC000780343F01003BEE7029B41462520984736
:104CD0000028FFF647AF023447E608230026B2E774
:104CE000AA461BF480715AF8040BBDD01BF4007166
:104CF0001ABFC0B2614680B2B6E72BF0060295B289
:104D00000DF1180B54E725F01105ADB2BB468CE749
:104D10000D46B8E73B460D4603F1020BBBE7DDF855
:104D200004B082E7126200000B620000CDE9043299
:104D30004146029B202098470028FFF613AF049BB2
:104D4000059A01339945F1DCA4EB0B01CC189B4685
:104D50000AB3029B4146302098470028FFF602AF75
:104D60008EB901342744019B391B994224DC1D462E
:104D70005DBB019AA9EB0B092244554614469144A8
:104D800035E0019F92E7023441463046029B984746
:104D90000028E7DAE6E640F206410D42E2D015F0DF
:104DA000020F14BF2B20202015F4806F04F10104A2
:104DB000414618BF2D20E9E7029B41463020984725
:104DC000002804F10104CEDACCE606AB013D4146F1
:104DD000585D029B98470028CADAC3E6029B414609
:104DE00020209847002804F10104FFF6BBAEA9EB90
:104DF0000403002BF2DCBFE55A4A8A432DE9F04157
:104E00000B4606460F4616D1002908DA00F0ACF82A
:104E100028B130463946BDE8F04100F0C9B8324605
:104E20003B4630463946FBF725FA06460F463046E4
:104E30003946BDE8F0810029044615DC21F0004226
:104E40000243F4D00029E6D10022002B70D00021CB
:104E5000DE0271D5481E121A21B1C1F1200024FAD8
:104E600000F003438C4001E00A15EDD0C3F31303B7
:104E7000D50743F480135CBF5B0003EBD473A2F24D
:104E8000FF3058BF64005B00002703EBD473401071
:104E900064004FF0160EB8464FF4001208EB020102
:104EA0009942DEBF5B1A02EB0108BF185B00BEF13E
:104EB000010E03EBD4734FEA52024FEA4404EDD1E2
:104EC000F44620254FF00041984501EB0E0236DBF9
:104ED0000BD1A24209D8002A01EB020E02DABEF180
:104EE000000F33DA0023A41A8C445B00013D03EB6E
:104EF000D4734FEA51014FEA4404E5D1234308D06B
:104F0000BCF1FF3F13BF0CF101030137AC4623F0A6
:104F1000010C7A104FEA5C03F90702F17F5202F5A7
:104F2000001248BF43F0004302EB00571E467EE7E5
:104F3000E30A153A640588E75B00013188E7002A37
:104F400001EB020E0BDABEF1000F08DB08F10106DF
:104F5000A242A3EB080300D9013BB046C3E7464693
:104F6000F6E700BF0000F07F0B4631F0004107D1AB
:104F700090B10D4A1A40002A14BF04200320704744
:104F8000094A13420AD0094B994209D9914209D1E1
:104F9000B0FA80F040097047022070470320704744
:104FA00004207047002070470000F07FFFFFEF7F74
:104FB00008B5FFF7D9FF0149002008BD0000F87FC0
:104FC000704710B586B0009203930122089B0192AE
:104FD0000493002207238DF808208DF814309DF8E3
:104FE0001430826843F002038DF8143094680B4645
:104FF00002226946A04706B010BD836800EBC101DC
:10500000B3F5004F2CBF51F8220031F81200704761
:1050100000EBC1018068B0F5004F2CBF41F8223091
:1050200021F81230704708B50122FFF7E6FFD040A3
:1050300008BD8368B3F5004F00EBC10108D34B688E
:105040001AB143F001034B60704723F00103FAE704
:105050004B881AB143F001034B80704723F00103E2
:10506000FAE753000122FFF7D3BFB0F5004F34BF7A
:1050700004230823481C0833A0EBD300B0FA80F0C7
:10508000C0F11F0070472DE9F0410D4686680446C7
:10509000FFF7C9FFB6F5004F014601D3012832D012
:1050A0003046FFF7E2FF04EB80010E6996B9E36832
:1050B000012282401343E36002220D612B46294600
:1050C0002046FFF7A5FF032229462046BDE8F04110
:1050D000FFF79EBF022231462046FFF78EFF29468A
:1050E000034607462046FFF793FF0322334629462F
:1050F0002046FFF78DFF39462B462046FFF788FFF5
:1051000002223146E1E7BDE8F081B2F5802F2CBFE5
:1051100008230423D21A2DE9F0418C18CD1D25F067
:10512000070524F00704641B0026E40805602146F7
:10513000AC60EE602046FFF798FF421D9200013000
:1051400002F107074FEAD707A2F110023146B8BFB4
:10515000324605F1100000F083FD3A4631462846FC
:10516000FFF77FFF3346324631462846FFF750FFB0
:10517000A4EB0708284631460122FFF75AFF4246B2
:105180003946FFF76EFF3B46324639462846FFF761
:105190003FFF21462846FFF764FF4346324621463B
:1051A0002846FFF735FF214628460122FFF741FF39
:1051B0003946BDE8F041FFF766BF002070470FB4E5
:1051C00007B504A951F8040B0191FBF79BFE03B04E
:1051D0005DF804EB04B07047038B13F0070305D1AF
:1051E0000368002B0CBF002003207047022B05D161
:1051F000408BB0FA80F0400980007047012B05D148
:105200000368002B0CBF002005207047002070476A
:1052100010B50C4600B111B96FF0150010BD081D96
:1052200000F093F80028F9D1A368032BF6D9F3E72F
:105230002DE9F0410D4607461946281D90461E46A9
:1052400000F094F8044638B13346424629463846C1
:10525000A446BDE8F0416047BDE8F08110B4EFF32B
:105260001182202484F31288BFF36F8F416110BC38
:105270000121FBF779BE38B50C46054658B151B14E
:105280000B6843B14B6833B11C22002100F0E8FCED
:105290002C61002038BD6FF01500FBE770B50546A6
:1052A0000E46FFF7B5FF041E14DBEFF31182202337
:1052B00083F31288BFF36F8F6B8B2C8B4FF6FF71CC
:1052C0008B4204F0070407D182F31188BFF36F8F7C
:1052D0006FF00A04204670BD022C0CD101336B83A1
:1052E00082F31188BFF36F8F002322463146284690
:1052F000FFF79EFFEEE7062C14D8DFE804F0041356
:105300001313041A0400002333606B683BB9C5E92A
:105310000066ACB902212846FBF726FEDAE71E60DC
:105320006E60F6E782F31188BFF36F8F6FF00404AD
:10533000D0E782F31188BFF36F8F6FF08504C9E760
:1053400082F31188BFF36F8FC4E7034658B14268F8
:1053500002F00302012A03D0032A04D1026812B129
:105360000020986070476FF01500704742688160B8
:1053700002F00302032A4FF0000203460CBF00684C
:1053800010465A6070477047012801D1EFF305833A
:10539000FEF786BC01460068FFF7F6BF08B5FBF7CD
:1053A00005FFBDE80840FBF725BF00210120FFF7FE
:1053B000EBBF61B662B680F31188BFF36F8F7047A1
:1053C00072B6002383F31188BFF36F8FBFF34F8F43
:1053D00030BF62B6BFF36F8F704772B6002383F39E
:1053E0001188BFF36F8FBFF34F8F20BF80F31188F9
:1053F000BFF36F8F62B67047202809D9B0F1004F14
:1054000008D80138B0FA80F0C0F11F0040007047A2
:10541000082070473E20704708B5FCF73BFB002092
:1054200008BD0369C9B20C2201FB0233186C00F0FD
:105430000700704770B5C9B20369EFF311852024E6
:1054400084F31288BFF36F8F0C2606FB0134246CA3
:1054500014F0C00408D0A24206D085F31188BFF32F
:105460006F8F4FF0FF3070BD06FB013301221A64CD
:1054700085F31188BFF36F8F436803EBC1035B684B
:1054800098470020EFE78022FFF7D4BFF8B5069FCA
:105490000469C9B2EFF31186202585F31288BFF3A2
:1054A0006F8F0C2505FB0144256C05F0070CBCF142
:1054B000010F0CD1276486F31188BFF36F8FC4E905
:1054C0000E23436853F8313098470020F8BD05F0AB
:1054D000C005AF4286F31188BFF36F8F0CBF6FF02A
:1054E00077004FF0FF30F1E713B580240094FFF709
:1054F000CDFF02B010BD10B40069CBB21C2403FB79
:105500000400002110BC10470020FDF7F9BB00206B
:1055100000F062B91046FEF705BD43685B68D3F83A
:1055200010350B600020704743685B6802EA010099
:1055300021EA0201C3F80805C3F80C1500207047E2
:1055400043685B680020C3F80815704743685B68D0
:105550000020C3F80C15704743685A68D2F8043528
:1055600021EA03000B40C2F80805C2F80C35002000
:10557000704710B503695868F8B1884219D19C6822
:1055800008685860A14200D19860002008602AB1E4
:105590005A680A609A68596002B99960002010E060
:1055A000814206D10868206098688142EDD19C60F4
:1055B000EBE7044600680028F2D1002AE8D16FF03A
:1055C000150010BD37B50446002201210320FCF769
:1055D00063F86368DD6901AA0021284600F02BF812
:1055E00000280DDB019B2A6819791868FCF7BCFEBE
:1055F000002805DB204603B0BDE83040FCF742BE82
:1056000003B030BDCA074368006905D4C1F3420244
:10561000012A04D0022A0AD06FF0150070471B68D7
:105620004FF0CC72C3F824250160002070471B683E
:105630004FF0CD62F6E730B543681360057A4468F1
:1056400004EBC504A34202D36FF0010030BD5C79C6
:105650008C4201D00833F0E70020F7E743681B686D
:10566000D3F88004C3F88004704742681368D3F805
:10567000100150B1126A002012780A70C3F81001AC
:10568000D3F8102101221A6070474FF0FF307047A5
:1056900002680346D2F8580140B95B68DB0706D4BC
:1056A000D2F82001003818BF012070470120704750
:1056B00043681B68D3F80423D20517D5D3F82021FB
:1056C000A2B1EFF31182202181F31288BFF36F8F13
:1056D000D3F8201131B10021C3F82011D3F82011E3
:1056E0000121D96082F31188BFF36F8FD3F858314D
:1056F000704700F150039B009BB203F1804303F518
:10570000883300221A601B687047004700F090B988
:10571000C00000F1804000F5F830C0F81015C0F866
:1057200014257047FDF766BFF7B50646F8B10128A6
:105730001BD104224FF4807301464FF08040034494
:105740000244C0F808130025012111601D608E423B
:105750001B688DF8071008BF0DF1070542F21074A1
:105760004FF0804746B1012E23D003B0F0BD0C228C
:105770004FF482730221E0E7D7F8183403F4803342
:105780003DB9002BF1D00120FFF7C0FF013CF3D160
:10579000EBE7D7F8182402F003022A60002BE4D0CC
:1057A0009DF807000128E0D1FFF7B0FF013CD9D1F7
:1057B000DBE7D7F80C3403F480333DB9002BD4D0A9
:1057C0000120FFF7A3FF013CF3D1CEE7D7F80C246B
:1057D00002F001022A70E1E7FFF7A6BFF7B50190DA
:1057E00001A8DDE9084716461D46FDF713FB019B9E
:1057F000B6F1000C18BF4FF0010C00EB83000B1E3C
:1058000018BF0123002D43EA4C0314BF4FF00C0CCA
:105810004FF0000C002C43EA0C0314BF4FF4E06C73
:105820004FF0000C002F43EA0C03D0F8002714BF00
:105830004FF4403C4FF0000C43EA0C0322EA030310
:1058400001B109780EB13678760019430DB12D7883
:10585000AD0031430CB12478240229430FB13F78C5
:105860003F040C433C43C0F8004703B0F0BD1FB5F4
:105870000DF10F03019300238DF80F1000931A46CA
:105880001946FFF7ABFF05B05DF804FB38B50546D8
:1058900008460C46FDF710FBB0B10846FDF700FBCB
:1058A00090B90846FDF7F0FA2A6801238340C2F850
:1058B00008332A6803B202EB8303D3F8102522F0E1
:1058C0000302C3F8102538BD20460021BDE838404A
:1058D000FFF7CDBFFDF776BBFFF7D8BF30B5D0F8E7
:1058E00004312BB10023C0F80431D0F80431012376
:1058F00091F82F2022B30022C0F82421D0F82441AF
:10590000C0F81C21D0F81C41C0F80821D0F80821AB
:10591000002B79D0002281F82D2091F82F20002A29
:1059200037D14D6B8C6AA5421FBF0523C0F80025F7
:10593000C0F80035134683F0010381F82F3028E0CA
:10594000D0F8244114B1C0F824210EE0D0F81C2175
:105950006AB3C0F81C41D0F81C214A6B01324A637B
:10596000D0F8245145B1C0F82441D0F824210122B7
:10597000426181F82F20CBE78C6AA24204D24C6AA4
:10598000A25CC0F81C25C3E791F82C201AB10123B2
:10599000C361002030BD0A6A12F0400F4FF00102CF
:1059A00003D0C26181F82D20F3E74261B0E7D0F85F
:1059B0000841002CACD0C0F80821D0F80841D0F83C
:1059C0002441002CBFD14A6B8C6AA242A0D24C6AFF
:1059D000D0F81855A5544A6B8C6A0132651EAA424C
:1059E0004A6308D10A6A540602D40222C0F800228F
:1059F000012202628CE7A242FAD10A6A520687D5D6
:105A0000022381F82D30C4E70120C3E707B50190D8
:105A100001A8FEF775F8019A01239340C0F80835F4
:105A200003B05DF804FB08B5FEF71CF9002008BDC3
:105A300008B1FCF761B87047704740B1C368587847
:105A400010F001001EBF1878B0FA80F040097047CE
:105A5000EFF31183202383F31288BFF36F8FFEE7E8
:105A600008B5FFF7F5FF10B5D0E9003433B90020D1
:105A7000E268537843F00103537010BD2046984705
:105A80000028F4D00028B8BF4042E368FF28A8BF30
:105A9000FF201870ECE700F0E3B800F0D3B87047CF
:105AA00008B52024EFF3118384F31288BFF36F8FBE
:105AB000FFF786FCF6E7EFF30580003818BF0120FA
:105AC0007047D0E9003213605A600023C0E9003308
:105AD000704708B5FFF7F5FF437B23F002034373DC
